:020000040000FA
:08000000803102288731E92F4D
:10004200FE0012001E00FE0B2228003422000C11BA
:1000520023000C1121000C1123008C1021008C14A0
:1000620022000E1423000E1021000E100800CF34BF
:100072000334AE342F3463346D34ED340B34EF3447
:100082006F340034F5346034B634F2346334D3342C
:10009200D7347034F734F334003401340034F800C8
:1000A200F401F5017008F200F3017208F60073081A
:1000B200F700781C5D285E2862287608F407770826
:1000C200F53D0130F635F70D890B63280310F80C66
:1000D2007808031D6D286E285A287508F1007408E7
:1000E200F000080070087104031978287928A22802
:1000F200F501F50A85280130F035F10D890B7D28CF
:100102000130F4007408F507F11F882889287C283B
:1001120071087302031D8F2870087202031C922853
:10012200932897287008F2027108F33B0130F136E8
:10013200F00C890B98280130F502031DA128A22892
:1001420089287308F1007208F0000800FB01FC0125
:10015200760877040319AE28AF28DE28FD01FD0AD0
:10016200BB280130F635F70D890BB3280130FA00B0
:100172007A08FD07F71FBE28BF28B2280130FB35D9
:10018200FC0D890BC02877087902031DCA2876085E
:100192007802031CCD28CE28D3287608F8027708E7
:1001A200F93B7B140130F736F60C890BD428013069
:1001B200FD02031DDD28DE28BF287C08F7007B082E
:1001C200F60008002000A801A9012108A9002008C2
:1001D200A8000830A835A90D890BEB282208A8072A
:1001E2002308A93DFF30A8050F30A90522000E11F2
:1001F20010302000AA000030AB000130A400003013
:10020200A5002A08FF3E890A0829A435A50D890BF5
:10021200062928082405A60029082505A70026087E
:100222002704031915291629192922008E141B29BE
:1002320022008E108E158E1101302000AA0200308D
:10024200AB3B2A082B04031D27292829FE2822005C
:100252000E1508000530F0000030F1008131D42184
:10026200813108302000B6000030B70081317E2194
:10027200813180312720813183314D23813120002A
:100282003608D8003508D70058085E06031D4B29EA
:1002920057085D0603194E294F295D295808DE00CB
:1002A2005708DD000030AC00AD005808AF00570819
:1002B200AE0084310724813100302000DC000030A0
:1002C200DB000030DA000030D9000130D9070030FD
:1002D200DA3D0030DB3D0030DC3D5C08031D7B294C
:1002E200A030590286305A3B01305B3B031C7A290D
:1002F2007B2966293D298031022822000E15210022
:100302008E100E118E1109302000A0000030A100C5
:100312000030A200A3008031E32081310A302000A6
:10032200A0000030A1003708A3003608A2008031E7
:10033200E32081310B302000A0000030A100073003
:10034200A2000030A3008031E32081310C30200074
:10035200A0000030A1000130A2000030A3008031D3
:10036200E32081310F302000A0000030A1000030D6
:10037200A200A3008031E320813101302000AC00D3
:100382000030AD000030AE00AF008431072481316F
:1003920000302000AC00AD000030AE00AF00843170
:1003A200072481310800132A21001908873970387F
:1003B2009900FC30990599172C2A7830210099046C
:1003C2001908FC390238990099132C2A21001908BE
:1003D2008739703899001908FC3902389900991345
:1003E2002C2A210019088739683899001908FC3924
:1003F2000238990099132C2A21001908873960388C
:1004020099001908FC390238990099132C2A210005
:1004120019088739583899001908FC3902389900A7
:1004220099132C2A7108003A0319182A2C2A7008E9
:10043200003A0319082A013A0319FD29033A03195C
:10044200F229013A0319E729073A0319DE29013A89
:100452000319D5292C2A08000310720D730DF4001C
:100462007408FA007A08031D372A382A412A003014
:10047200F3000030F2000030F1000030F000A02A5A
:100482007008F4007108F5007208F6007308F700AE
:100492001F30F736F60CF50CF40C890B4A2A740857
:1004A200F8007808F900F217FF30F005FF30F10587
:1004B200FF30F2050030F3059630FA02FA1F622A85
:1004C200632A7B2A7A08803A973E0318692A6A2AA5
:1004D2006B2A382A0130F336F20CF10CF00C890B3E
:1004E2006C2A0130F4007408FA07031D792A7A2A6B
:1004F2006B2A902A20307A02031C802A812A8B2AB6
:10050200382A0130F035F10DF20DF30D890B832AF3
:100512000130FA027A08031D8F2A902A822A79086A
:100522000319942A952AA02AF009F109F209F3097C
:10053200F00A0319F10A0319F20A0319F30A08006F
:10054200F80078080319A62AA72ABB2AF31FAA2AA9
:10055200AB2ABB2A7009FA007109FB007209FC0080
:100562007309FD00FA0A0319FB0A0319FC0A0319AD
:10057200FD0AC32A7308FD007208FC007108FB0023
:100582007008FA007308720471047004031DCA2A09
:10059200CB2AD42A0030F3000030F2000030F10000
:1005A2000030F0004C2B9630F4007408F900E42A75
:1005B2000130F4007408F9070130FD36FC0CFB0C25
:1005C200FA0C890BDE2AFE307D05031DE92AEA2A90
:1005D200D92AFE2A0130F4007408F9070130FA071B
:1005E2000030FB3D0030FC3D0030FD3D0130FD366A
:1005F200FC0CFB0CFA0C890BF82AFF307D05031D5D
:10060200032B042BEB2A0E2B0130F9020130FA35B1
:10061200FB0DFC0DFD0D890B082BFC1B112B122B66
:10062200182B023079020318172B182B052B791877
:100632001B2B1C2B242BFF30FA05FF30FB057F30D0
:10064200FC05FF30FD050310F90C7908F400F501F3
:10065200F601F7011830F435F50DF60DF70D890B9B
:100662002C2B7408FA047508FB047608FC0477083E
:10067200FD04780803193E2B3F2B442BF31F422B1A
:10068200432B442BFD177D08F3007C08F2007B0806
:10069200F1007A08F00008002000BB01BC01BD0196
:1006A200BE0122000C110E102000BF01C00101305A
:1006B200BF070030C03D03304002E83003193F025B
:1006C200031C642B652B582BBB01BC0122000C11AF
:1006D2002000BF01C0010130BF070030C03D033020
:1006E2004002E83003193F02031C782B792B6C2B54
:1006F2008C1C7C2B7D2B812B0130BD070030BE3D35
:100702000130BD35BE0D890B822B22000C15200055
:10071200BF01C0010130BF070030C03D03304002BD
:10072200E83003193F02031C972B982B8B2B0130C7
:10073200BB070030BC3D00303C02103003193B02C5
:10074200031CA42BA52B672BBF01C0010130BF07DF
:100752000030C03D03304002E83003193F02031C61
:10076200B32BB42BA72B22000E1420003D1DBA2B55
:10077200BB2BBE2BBD01BE01022C0330BE36BD0C0D
:10078200890BBF2B3D08F0003E08F100F201F30196
:1007920000308231A122833173082000BA0072082E
:1007A200B9007108B8007008B7003E30A30080306D
:1007B200A2000030A1000030A0003A08A7003908CA
:1007C200A6003808A5003708A40085319225833198
:1007D20020002308BA002208B9002108B800200826
:1007E200B7003A08F3003908F2003808F100370878
:1007F200F00082312D22833171082000BE00700882
:10080200BD003E08B6003D08B500080020002C03DC
:100812002D04031D0D2C0E2CD02C0130A000003015
:10082200A100E830F6000330F7002F08F9002E0887
:10083200F8008031A720843176084C3E860087017B
:1008420001082000B000B1013008A2003108A30065
:100852008031E320843105302000A0000030A10067
:100862006430F6000030F7002F08F3002E08F20083
:10087200E830F0000330F1008031732084317108D8
:10088200F9007008F8008031A720843176084C3EC8
:100892008600870101082000B000B1013008A200E3
:1008A2003108A3008031E320843120002F08F300B7
:1008B2002E08F200E830F0000330F100803173209E
:1008C200843171082000B5007008B4000730A00020
:1008D2000030A1000A30F6000030F7003508F300BE
:1008E2003408F2006430F0000030F10080317320EF
:1008F20084317108F9007008F8008031A720843132
:1009020076084C3E8600870101082000B000B10144
:100912003008A2003108A3008031E3208431200096
:100922002F08F3002E08F200E830F0000330F10047
:1009320080317320843171082000B5007008B40042
:100942003508F3003408F2006430F0000030F100A2
:1009520080317320843171082000B3007008B20026
:100962000330A0000030A1000A30F0000030F10096
:100972003308F3003208F2008031732084317008AA
:100982004C3E8600870101082000B000B10130080A
:10099200A2003108A3008031E3208431912D083078
:1009A200A0000030A100E830F6000330F7002F0865
:1009B200F9002E08F8008031A72084317608413EE4
:1009C2008600870101082000B000B1013008A200B2
:1009D2003108A3008031E320843106302000A000DA
:1009E2000030A1006430F6000030F7002F08F30059
:1009F2002E08F200E830F0000330F100803173205D
:100A020084317108F9007008F8008031A720843120
:100A12007608413E8600870101082000B000B1013E
:100A22003008A2003108A3008031E3208431200085
:100A32002F08F3002E08F200E830F0000330F10036
:100A420080317320843171082000B5007008B40031
:100A52000230A0000030A1000A30F6000030F7009A
:100A62003508F3003408F2006430F0000030F10081
:100A72008031732084317108F9007008F8008031E8
:100A8200A72084317608413E8600870101082000B4
:100A9200B000B1013008A2003108A3008031E32088
:100AA200843120002F08F3002E08F200E830F00015
:100AB2000330F10080317320843171082000B500C9
:100AC2007008B4003508F3003408F2006430F00016
:100AD2000030F10080317320843171082000B300AE
:100AE2007008B2000430A0000030A1000A30F0000B
:100AF2000030F1003308F3003208F2008031732035
:100B020084317008413E8600870101082000B00050
:100B1200B1013008A2003108A3008031E320843102
:100B22000800200023088039F9007908A80023353D
:100B3200F9007908AE00A21F9F2DA02DA12D2E1421
:100B42002E080319A52DA62DB52D2E0A031DAA2D9B
:100B5200AB2DB32D0030A3000030A2000030A10065
:100B62000030A000A217BD2D0030A3000030A2006B
:100B72000030A1000030A00027088039F900790870
:100B8200A8062735F9007908AD00A61FC92DCA2D80
:100B9200CB2D2D142D080319CF2DD02DDF2D2D0A8D
:100BA200031DD42DD52DDD2D0030A7000030A60069
:100BB2000030A5000030A400A617E72D0030A700E2
:100BC2000030A6000030A5000030A4002D08031953
:100BD200EB2DEC2DF12D2E08031DF02DF12DFA2D0C
:100BE2000030A3000030A2000030A1000030A000BD
:100BF200E82F2008F9007908F000260880315020FB
:100C0200853171082000B4007008B3003308F90080
:100C1200FA01FB01FC017C08AC007B08AB007A08FE
:100C2200AA007908A9003408F900FA01FB01FC01C5
:100C32007C08B2007B08B1007A08B0007908AF00E6
:100C42002108F9007908F00025088031502085310B
:100C520071082000B4007008B3003308F900FA01EB
:100C6200FB01FC017908A9077A08AA3D7B08AB3D84
:100C72007C08AC3D3408F900FA01FB01FC0179085B
:100C8200AF077A08B03D7B08B13D7C08B23D22082F
:100C9200F9007908F000240880315020853171086C
:100CA2002000B4007008B3003308F900FA01FB0118
:100CB200FC017908A9077A08AA3D7B08AB3D7C08AC
:100CC200AC3D3408F900FA01FB01FC017908AF07D9
:100CD2007A08B03D7B08B13D7C08B23D0830A935A9
:100CE200AA0DAB0DAC0D890B702E2108F900790805
:100CF200F000240880315020853171082000B400B2
:100D02007008B3003308A9073408AA3D0030AB3D90
:100D1200AC3D2008F9007908F00025088031502008
:100D2200853171082000B4007008B3003308A907A8
:100D32003408AA3D0030AB3DAC3D0830A935AA0DC0
:100D4200AB0DAC0D890B9F2E2008F9007908F0003D
:100D5200240880315020853171082000B4007008C9
:100D6200B3003308A9073408AA3D0030AB3DAC3DBF
:100D72002108F9007908F0002608803150208531D9
:100D820071082000B4007008B3003308AF073408BC
:100D9200B03D0030B13DB23D2208F9007908F000C3
:100DA200250880315020853171082000B400700878
:100DB200B3003308AF073408B03D0030B13DB23D57
:100DC2002208F9007908F000260880315020853188
:100DD20071082000B4007008B3003308F900340829
:100DE200FA00FB01FC010830F935FA0DFB0DFC0D90
:100DF200890BF52E7908AF077A08B03D7B08B13D23
:100E02007C08B23D2908F9002A08FA002B08FB00E9
:100E12002C08FC001830FC36FB0CFA0CF90C890B80
:100E22000C2F7908AF077A08B03D7B08B13D7C08EA
:100E3200B23D0830A935AA0DAB0DAC0D890B1B2FA5
:100E42002E082D07F900FA01FA0D7908823EB30047
:100E5200FF307A3DB400442F0130AF35B00DB10DF3
:100E6200B20D890B2E2FAC1F372F382F392F2F148D
:100E72000130A935AA0DAB0DAC0D890B3A2FFF300D
:100E8200B307FF30B43DB11F472F482F2D2FAD01BF
:100E9200AC1F4C2F4D2F692FFF302905F900FF3071
:100EA2002A05FA00FF302B05FB007F302C05FC00E1
:100EB2007C087B047A0479040319602F612F642F64
:100EC200AD01AD0A692F2F1C672F682F692F612F83
:100ED2002D0803196D2F6E2F962F0130AF070030AA
:100EE200B03D0030B13D0030B23D321C792F7A2F37
:100EF200962F2F08F9003008FA003108FB0032085B
:100F0200FC000130FD00FC37FB0CFA0CF90CFD0B68
:100F1200842F7C08B2007B08B1007A08B0007908FF
:100F2200AF000130B3070030B43D3408803AF90015
:100F320080307902031D9F2FFF303302031CA22F42
:100F4200A32FAD2F7F302000B2008030B1000030DF
:100F5200B0000030AF00DC2F20003408803AF900E6
:100F620080307902031DB72F013033020318BA2FE4
:100F7200BB2FC62F00302000B2000030B10000307D
:100F8200B0000030AF00A801DC2F20003308F900C8
:100F92007908AE00FF30AF05FF30B0057F30B105F4
:100FA2000030B2052E1CD62FD72FD82FB1172E36D0
:100FB200F9007908B2002808F9007908B204320869
:100FC200A3003108A2003008A1002F08A0000800E9
:100FD2003830840080308500413086000030870040
:100FE2001830803121208731D901DA01DB01DC019F
:0E0FF200DD01DE01DF01E001200081312B294D
:020000040001F9
:04000E0004D8FFDD36
:00000001FF
